{"abi":[{"type":"function","name":"encodeAndStoreStruct","inputs":[{"name":"key","type":"bytes32","internalType":"bytes32"},{"name":"fieldNames","type":"string[]","internalType":"string[]"},{"name":"values","type":"bytes[]","internalType":"bytes[]"}],"outputs":[],"stateMutability":"nonpayable"},{"type":"function","name":"getData","inputs":[{"name":"key","type":"bytes32","internalType":"bytes32"}],"outputs":[{"name":"","type":"bytes","internalType":"bytes"}],"stateMutability":"view"},{"type":"function","name":"setData","inputs":[{"name":"key","type":"bytes32","internalType":"bytes32"},{"name":"value","type":"bytes","internalType":"bytes"}],"outputs":[],"stateMutability":"nonpayable"}],"bytecode":{"object":"0x6080604052348015600f57600080fd5b506107478061001f6000396000f3fe608060405234801561001057600080fd5b50600436106100415760003560e01c80631226ab0b1461004657806354f6127f1461005b5780637f23690c14610084575b600080fd5b6100596100543660046103ba565b610097565b005b61006e6100693660046104ba565b61017b565b60405161007b91906104f7565b60405180910390f35b61005961009236600461052a565b61021d565b80518251146100fb5760405162461bcd60e51b815260206004820152602660248201527f4669656c64206e616d657320616e642076616c756573206c656e677468206d696044820152650e6dac2e8c6d60d31b606482015260840160405180910390fd5b606060005b835181101561016a578184828151811061011c5761011c610571565b602002602001015184838151811061013657610136610571565b602002602001015160405160200161015093929190610587565b60408051601f198184030181529190529150600101610100565b50610175848261021d565b50505050565b6000818152602081905260409020805460609190610198906105ca565b80601f01602080910402602001604051908101604052809291908181526020018280546101c4906105ca565b80156102115780601f106101e657610100808354040283529160200191610211565b820191906000526020600020905b8154815290600101906020018083116101f457829003601f168201915b50505050509050919050565b60008281526020819052604090206102358282610652565b505050565b634e487b7160e01b600052604160045260246000fd5b604051601f8201601f1916810167ffffffffffffffff811182821017156102795761027961023a565b604052919050565b600067ffffffffffffffff82111561029b5761029b61023a565b5060051b60200190565b60008067ffffffffffffffff8411156102c0576102c061023a565b50601f8301601f19166020016102d581610250565b9150508281528383830111156102ea57600080fd5b828260208301376000602084830101529392505050565b600082601f83011261031257600080fd5b610321838335602085016102a5565b9392505050565b600082601f83011261033957600080fd5b813561034c61034782610281565b610250565b8082825260208201915060208360051b86010192508583111561036e57600080fd5b602085015b838110156103b057803567ffffffffffffffff81111561039257600080fd5b6103a1886020838a0101610301565b84525060209283019201610373565b5095945050505050565b6000806000606084860312156103cf57600080fd5b83359250602084013567ffffffffffffffff8111156103ed57600080fd5b8401601f810186136103fe57600080fd5b803561040c61034782610281565b8082825260208201915060208360051b85010192508883111561042e57600080fd5b602084015b8381101561048457803567ffffffffffffffff81111561045257600080fd5b8501603f81018b1361046357600080fd5b6104758b6020830135604084016102a5565b84525060209283019201610433565b509450505050604084013567ffffffffffffffff8111156104a457600080fd5b6104b086828701610328565b9150509250925092565b6000602082840312156104cc57600080fd5b5035919050565b60005b838110156104ee5781810151838201526020016104d6565b50506000910152565b60208152600082518060208401526105168160408501602087016104d3565b601f01601f19169190910160400192915050565b6000806040838503121561053d57600080fd5b82359150602083013567ffffffffffffffff81111561055b57600080fd5b61056785828601610301565b9150509250929050565b634e487b7160e01b600052603260045260246000fd5b600084516105998184602089016104d3565b8451908301906105ad8183602089016104d3565b84519101906105c08183602088016104d3565b0195945050505050565b600181811c908216806105de57607f821691505b6020821081036105fe57634e487b7160e01b600052602260045260246000fd5b50919050565b601f82111561023557806000526020600020601f840160051c8101602085101561062b5750805b601f840160051c820191505b8181101561064b5760008155600101610637565b5050505050565b815167ffffffffffffffff81111561066c5761066c61023a565b6106808161067a84546105ca565b84610604565b6020601f8211600181146106b4576000831561069c5750848201515b600019600385901b1c1916600184901b17845561064b565b600084815260208120601f198516915b828110156106e457878501518255602094850194600190920191016106c4565b50848210156107025786840151600019600387901b60f8161c191681555b50505050600190811b0190555056fea264697066735822122072faf121b2b30eaa7f671616464aaefb270ce83a853ec266be37dde610e84b3564736f6c634300081a0033","linkReferences":{}},"methodIdentifiers":{"encodeAndStoreStruct(bytes32,string[],bytes[])":"1226ab0b","getData(bytes32)":"54f6127f","setData(bytes32,bytes)":"7f23690c"},"id":0}