{"abi":[{"type":"function","name":"encodeAddress","inputs":[{"name":"value","type":"address","internalType":"address"}],"outputs":[{"name":"","type":"bytes","internalType":"bytes"}],"stateMutability":"pure"},{"type":"function","name":"encodeAndPassAddress","inputs":[{"name":"targetContract","type":"address","internalType":"address"},{"name":"value","type":"address","internalType":"address"}],"outputs":[],"stateMutability":"nonpayable"},{"type":"function","name":"encodeAndPassBool","inputs":[{"name":"targetContract","type":"address","internalType":"address"},{"name":"value","type":"bool","internalType":"bool"}],"outputs":[],"stateMutability":"nonpayable"},{"type":"function","name":"encodeAndPassMultiple","inputs":[{"name":"targetContract","type":"address","internalType":"address"},{"name":"value","type":"uint256","internalType":"uint256"},{"name":"text","type":"string","internalType":"string"}],"outputs":[],"stateMutability":"nonpayable"},{"type":"function","name":"encodeAndPassMultipleTypes","inputs":[{"name":"targetContract","type":"address","internalType":"address"},{"name":"num","type":"uint256","internalType":"uint256"},{"name":"text","type":"string","internalType":"string"},{"name":"flag","type":"bool","internalType":"bool"},{"name":"addr","type":"address","internalType":"address"}],"outputs":[],"stateMutability":"nonpayable"},{"type":"function","name":"encodeAndPassString","inputs":[{"name":"targetContract","type":"address","internalType":"address"},{"name":"value","type":"string","internalType":"string"}],"outputs":[],"stateMutability":"nonpayable"},{"type":"function","name":"encodeAndPassStringArray","inputs":[{"name":"targetContract","type":"address","internalType":"address"},{"name":"values","type":"string[]","internalType":"string[]"}],"outputs":[],"stateMutability":"nonpayable"},{"type":"function","name":"encodeAndPassUint256","inputs":[{"name":"targetContract","type":"address","internalType":"address"},{"name":"value","type":"uint256","internalType":"uint256"}],"outputs":[],"stateMutability":"nonpayable"},{"type":"function","name":"encodeAndPassUint256Array","inputs":[{"name":"targetContract","type":"address","internalType":"address"},{"name":"values","type":"uint256[]","internalType":"uint256[]"}],"outputs":[],"stateMutability":"nonpayable"},{"type":"function","name":"encodeBool","inputs":[{"name":"value","type":"bool","internalType":"bool"}],"outputs":[{"name":"","type":"bytes","internalType":"bytes"}],"stateMutability":"pure"},{"type":"function","name":"encodeMultiple","inputs":[{"name":"value","type":"uint256","internalType":"uint256"},{"name":"text","type":"string","internalType":"string"}],"outputs":[{"name":"","type":"bytes","internalType":"bytes"}],"stateMutability":"pure"},{"type":"function","name":"encodeMultipleTypes","inputs":[{"name":"num","type":"uint256","internalType":"uint256"},{"name":"text","type":"string","internalType":"string"},{"name":"flag","type":"bool","internalType":"bool"},{"name":"addr","type":"address","internalType":"address"}],"outputs":[{"name":"","type":"bytes","internalType":"bytes"}],"stateMutability":"pure"},{"type":"function","name":"encodeString","inputs":[{"name":"value","type":"string","internalType":"string"}],"outputs":[{"name":"","type":"bytes","internalType":"bytes"}],"stateMutability":"pure"},{"type":"function","name":"encodeStringArray","inputs":[{"name":"values","type":"string[]","internalType":"string[]"}],"outputs":[{"name":"","type":"bytes","internalType":"bytes"}],"stateMutability":"pure"},{"type":"function","name":"encodeUint256","inputs":[{"name":"value","type":"uint256","internalType":"uint256"}],"outputs":[{"name":"","type":"bytes","internalType":"bytes"}],"stateMutability":"pure"},{"type":"function","name":"encodeUint256Array","inputs":[{"name":"values","type":"uint256[]","internalType":"uint256[]"}],"outputs":[{"name":"","type":"bytes","internalType":"bytes"}],"stateMutability":"pure"}],"bytecode":{"object":"0x6080604052348015600f57600080fd5b50610bdc8061001f6000396000f3fe608060405234801561001057600080fd5b50600436106101005760003560e01c8063a2b23d1811610097578063e39a8c4911610066578063e39a8c4914610201578063ed23a9c214610214578063f21a309a14610227578063f8a2cb8b1461023a57600080fd5b8063a2b23d18146101b5578063a34d935d146101c8578063d32b1bea146101db578063e334f32e146101ee57600080fd5b8063720fcb67116100d3578063720fcb671461016957806382a0acbb1461017c5780638a84c8471461018f578063a1a6e68e146101a257600080fd5b806316163c89146101055780631c9f144c1461012e5780633a9f1949146101435780634f01513c14610156575b600080fd5b610118610113366004610495565b61024d565b6040516101259190610507565b60405180910390f35b61014161013c3660046105e6565b610274565b005b610118610151366004610633565b610290565b6101416101643660046106dc565b6102a5565b61014161017736600461071f565b6102b0565b61011861018a3660046107cb565b6102bb565b61014161019d366004610807565b6102ce565b6101416101b036600461084a565b6102d9565b6101186101c33660046108a0565b6102f7565b6101186101d63660046108d0565b610323565b6101186101e9366004610904565b610336565b6101186101fc36600461091f565b610352565b61014161020f366004610953565b610365565b610118610222366004610986565b610370565b6101416102353660046109ed565b6103a2565b610141610248366004610a65565b6103c4565b604080518215156020820152606091015b6040516020818303038152906040529050919050565b600061027f82610352565b905061028b83826103cf565b505050565b60608160405160200161025e91815260200190565b600061027f82610323565b600061027f82610290565b60608160405160200161025e9190610a8f565b600061027f826102bb565b60006102e583836102f7565b90506102f184826103cf565b50505050565b6060828260405160200161030c929190610af4565b604051602081830303815290604052905092915050565b60608160405160200161025e9190610b0d565b604080516001600160a01b03831660208201526060910161025e565b60608160405160200161025e9190610507565b600061027f82610336565b6060848484846040516020016103899493929190610b50565b6040516020818303038152906040529050949350505050565b60006103b085858585610370565b90506103bc86826103cf565b505050505050565b600061027f8261024d565b6000826001600160a01b0316826040516103e99190610b8a565b6000604051808303816000865af19150503d8060008114610426576040519150601f19603f3d011682016040523d82523d6000602084013e61042b565b606091505b505090508061028b5760405162461bcd60e51b815260206004820152601b60248201527f54617267657420636f6e74726163742063616c6c206661696c65640000000000604482015260640160405180910390fd5b8035801515811461049057600080fd5b919050565b6000602082840312156104a757600080fd5b6104b082610480565b9392505050565b60005b838110156104d25781810151838201526020016104ba565b50506000910152565b600081518084526104f38160208601602086016104b7565b601f01601f19169290920160200192915050565b6020815260006104b060208301846104db565b80356001600160a01b038116811461049057600080fd5b634e487b7160e01b600052604160045260246000fd5b604051601f8201601f191681016001600160401b038111828210171561056f5761056f610531565b604052919050565b600082601f83011261058857600080fd5b81356001600160401b038111156105a1576105a1610531565b6105b4601f8201601f1916602001610547565b8181528460208386010111156105c957600080fd5b816020850160208301376000918101602001919091529392505050565b600080604083850312156105f957600080fd5b6106028361051a565b915060208301356001600160401b0381111561061d57600080fd5b61062985828601610577565b9150509250929050565b60006020828403121561064557600080fd5b5035919050565b60006001600160401b0382111561066557610665610531565b5060051b60200190565b600082601f83011261068057600080fd5b813561069361068e8261064c565b610547565b8082825260208201915060208360051b8601019250858311156106b557600080fd5b602085015b838110156106d25780358352602092830192016106ba565b5095945050505050565b600080604083850312156106ef57600080fd5b6106f88361051a565b915060208301356001600160401b0381111561071357600080fd5b6106298582860161066f565b6000806040838503121561073257600080fd5b61073b8361051a565b946020939093013593505050565b600082601f83011261075a57600080fd5b813561076861068e8261064c565b8082825260208201915060208360051b86010192508583111561078a57600080fd5b602085015b838110156106d25780356001600160401b038111156107ad57600080fd5b6107bc886020838a0101610577565b8452506020928301920161078f565b6000602082840312156107dd57600080fd5b81356001600160401b038111156107f357600080fd5b6107ff84828501610749565b949350505050565b6000806040838503121561081a57600080fd5b6108238361051a565b915060208301356001600160401b0381111561083e57600080fd5b61062985828601610749565b60008060006060848603121561085f57600080fd5b6108688461051a565b92506020840135915060408401356001600160401b0381111561088a57600080fd5b61089686828701610577565b9150509250925092565b600080604083850312156108b357600080fd5b8235915060208301356001600160401b0381111561061d57600080fd5b6000602082840312156108e257600080fd5b81356001600160401b038111156108f857600080fd5b6107ff8482850161066f565b60006020828403121561091657600080fd5b6104b08261051a565b60006020828403121561093157600080fd5b81356001600160401b0381111561094757600080fd5b6107ff84828501610577565b6000806040838503121561096657600080fd5b61096f8361051a565b915061097d6020840161051a565b90509250929050565b6000806000806080858703121561099c57600080fd5b8435935060208501356001600160401b038111156109b957600080fd5b6109c587828801610577565b9350506109d460408601610480565b91506109e26060860161051a565b905092959194509250565b600080600080600060a08688031215610a0557600080fd5b610a0e8661051a565b94506020860135935060408601356001600160401b03811115610a3057600080fd5b610a3c88828901610577565b935050610a4b60608701610480565b9150610a596080870161051a565b90509295509295909350565b60008060408385031215610a7857600080fd5b610a818361051a565b915061097d60208401610480565b6000602082016020835280845180835260408501915060408160051b86010192506020860160005b82811015610ae857603f19878603018452610ad38583516104db565b94506020938401939190910190600101610ab7565b50929695505050505050565b8281526040602082015260006107ff60408301846104db565b602080825282518282018190526000918401906040840190835b81811015610b45578351835260209384019390920191600101610b27565b509095945050505050565b848152608060208201526000610b6960808301866104db565b9315156040830152506001600160a01b039190911660609091015292915050565b60008251610b9c8184602087016104b7565b919091019291505056fea2646970667358221220940fd873fce1ed611f33cba317d0acbf616e8bad8fa72bff89107fa2e9a0635464736f6c634300081a0033","linkReferences":{}},"methodIdentifiers":{"encodeAddress(address)":"d32b1bea","encodeAndPassAddress(address,address)":"e39a8c49","encodeAndPassBool(address,bool)":"f8a2cb8b","encodeAndPassMultiple(address,uint256,string)":"a1a6e68e","encodeAndPassMultipleTypes(address,uint256,string,bool,address)":"f21a309a","encodeAndPassString(address,string)":"1c9f144c","encodeAndPassStringArray(address,string[])":"8a84c847","encodeAndPassUint256(address,uint256)":"720fcb67","encodeAndPassUint256Array(address,uint256[])":"4f01513c","encodeBool(bool)":"16163c89","encodeMultiple(uint256,string)":"a2b23d18","encodeMultipleTypes(uint256,string,bool,address)":"ed23a9c2","encodeString(string)":"e334f32e","encodeStringArray(string[])":"82a0acbb","encodeUint256(uint256)":"3a9f1949","encodeUint256Array(uint256[])":"a34d935d"},"id":0}